:1000000019C033C032C0DAC330C02FC02EC0E1C324
:100010002CC02BC02AC029C028C027C026C025C09C
:1000200024C023C022C021C020C01FC01EC01DC0CC
:100030001CC01BC011241FBECFEFCDBFDFE3DEBF4E
:100040001EE3A0E0BEE3E7E3FFE002C005900D92EF
:10005000A633B107D9F72EE3A6E3BEE301C01D9294
:10006000A734B207E1F7E8D3C5C5CACF12995EC07D
:100070008091393E811153C08091393E86958F5FC2
:100080008093393E80913F3E9091403E2091413E89
:100090003091423E820F931F80933F3E9093403EAB
:1000A00011994EC08091383E811143C08091383EF5
:1000B00086958F5F8093383E80913F3E9091403E81
:1000C0002091413E3091423E821B930B80933F3EF4
:1000D0009093403E40913F3E5091403E2091453E9E
:1000E0003091463E8091433E9091443E60913E3E29
:1000F000662349F14217530724F480933F3E9093BF
:10010000403E40913F3E5091403E8417950724F475
:1001100020933F3E3093403E80913F3E08958F5F55
:100120008093393E813208F0A7CFBACF1092393E82
:10013000B7CF8F5F8093383E813208F0B7CFCACFF8
:100140001092383EC7CF4217530724F420933F3E06
:100150003093403E20913F3E3091403E82179307BE
:10016000DCF680933F3E9093403ED6CFE82FF0E000
:1001700022E030E0082E01C0220F0A94EAF76F3F18
:1001800059F08091010A282B2093010AEE0FFF1FDE
:10019000ED5DF54F60830895F595E795E470FF27D1
:1001A0009181877041E050E001C0440F8A95EAF7E1
:1001B000892F842B81838091010A20952823209305
:1001C000010A08959091150896FFFCCF80931808B6
:1001D00008958091150886FFFCCF83E08093140872
:1001E0000895CF93DF93C82FD62F88E78093170801
:1001F00080E0E8DF8C2F8F70E5DF8C2F82958F7089
:100200008061E0DF8D2F8770806BDCDFE2DFC093E1
:10021000373ED093363EDF91CF9108950F931F93D1
:10022000CF93DF93082E000C990B8097EC01CC0F35
:10023000DD1FCC0FDD1FC80FD91F00913D3E802F61
:10024000C1DFCF5FD34715E0899101118095BADFF7
:100250001150D1F78091373E8A5F8093373E8B37BC
:1002600088F0B7DF6091363E6F5F6093363E80E086
:10027000B8DF88E78093170880E4DF91CF911F9162
:100280000F91A0CFDF91CF911F910F910895FF9211
:100290000F931F93CF93DF93D82F88E7809317088E
:1002A00080E490DF01EE1DE8C0E0F12CF80121911F
:1002B00031918F0180E0D217130628F08F5FD21B97
:1002C000FF24F394F8CFF11002C0C23059F4805DDE
:1002D000A5DFCF5FC33051F7DF91CF911F910F9111
:1002E000FF9077CF80E2F4CFCF93C82F88E7809339
:1002F000170880E467DF80E0CA3018F08F5FCA50CB
:10030000FBCF805D8BDF80E38C0F88DFCF9161CFE7
:100310000F931F93CF93DF938C0188E78093170887
:1003200080E450DFE8018991882311F077DFFBCF6B
:10033000DF91CF911F910F914CCFCF93C82F88E7BA
:100340008093170880E43EDF8C2F68DFCF9141CF88
:10035000CF936CE370E03AD4C82F862FC5DF8AE3D1
:10036000ECDF8C2FCF91C0CF88E78093170880E413
:1003700029DF8091373E91E0980F9093373E87FDBB
:1003800003C080913D3EF4CF24DF8091363E8F5FE5
:10039000843030F48093363E6091363E80E021CF49
:1003A0001092363EF9CF60E080E01BDFDDDFDCDF5E
:1003B000DBDFDACFCF93DF9381E080931608809361
:1003C00013088093150888E78093170880E0FADE09
:1003D000C8EFDBE88991F6DE8CE8C130D807D1F7A9
:1003E000DF91CF91F6CE8091003E882361F016997F
:1003F00016C01092003E81EE94E00197F1F700C024
:10040000000081E00895169B0BC091E09093003EA0
:10041000E1EEF4E03197F1F700C00000089580E0CC
:100420000895CF93DF93D62F1092453E1092463E0B
:100430002FEF30E02093433E3093443E21E030E004
:100440002093413E3093423E90E080933F3E909314
:10045000403E10923E3E8FEF80933D3E07DEC82F18
:1004600063E08D2FBEDE8C2F12DF89E698E10197C5
:10047000F1F700C00000B7DF882381F310923D3E02
:1004800063E08D2FAEDE8C2F02DF8C2FDF91CF91BA
:100490000895EF92FF920F931F93CF93DF93C62F90
:1004A000142F6CE370E092D37B01D82F092F642FB7
:1004B0008C2F97DE8E2D18DF8AE33FDF8D2F14DF20
:1004C0001092453E1092463E87E190E08093433E75
:1004D0009093443E81E090E08093413E9093423E71
:1004E000FF24E0923F3EF092403E80933E3E8FEFED
:1004F00080933D3EBBDDF82E612F8C2F72DE8F2D59
:10050000F3DE83ED90E30197F1F700C000006BDFAD
:10051000882381F310923D3E612F8C2F62DE8F2D58
:10052000E3DE1092453E1092463E8BE390E08093CE
:10053000433E9093443E81E090E08093413E90930F
:10054000423ED0933F3E0093403E80933E3E8FEF2D
:1005500080933D3ECE5E8ADDD82F612F8C2F41DE09
:100560008D2FC2DE83ED90E30197F1F700C000000C
:100570003ADF882381F310923D3E612F8C2F31DECC
:100580008D2FB2DE8D2F90E02CE3F29E800D911D19
:100590001124DF91CF911F910F91FF90EF9008955B
:1005A000CF92DF92FF920F931F93CF93DF93C82FC9
:1005B000FADE87EE9DE8ACDE81E3F82EFC0E8F2D8F
:1005C000BCDE61E080E00DDE86EF9DE8A1DE0C2F51
:1005D00010E02DE0C29FE0011124C15FD14CCD801D
:1005E000DE80C601B5DE8DE2A8DE8F819885B0DEA3
:1005F00081E09EE88DDE89859A85AADE8DE29DDE0A
:100600008B859C85A5DE8CE09EE882DE8B813FDEBB
:1006100088E19EE87DDE8C813ADE41E06CE3C60134
:1006200038DF8F3925E0920708F0BDC08D839E83A7
:100630008DE0809FE001819FD00D1124C15FD14CDE
:1006400041E060E68F81988524DF8F839887CD8095
:10065000DE808C159D0538F4CF82D88661E080E677
:10066000C0DDC60175DE8DE0809FE001819FD00D69
:100670001124C15FD14C42E06CE389859A8509DF82
:1006800089879A87CF80D884C816D90650F08FEF13
:10069000C81AD80AC986DA8662E08CE3A2DDC601F0
:1006A00057DE8DE0809FE001819FD00D1124C15F56
:1006B000D14C42E060E68B859C85EBDE8B879C8786
:1006C000C984DA848C159D0538F4CB86DC8662E01B
:1006D00080E687DDC6013CDE8DE0809FE001819FE2
:1006E000D00D1124C15FD14C62E48B819ADE8B83E3
:1006F0006CE68C8196DE8C83DB808D1530F4DC8299
:1007000063E08CE66EDD8D2DC2DD6DDE8823E9F3BE
:100710004ADE87EE9DE8FCDD8F2D0FDE62E080E093
:1007200060DD8DE19EE8F4DD8DE0809FF001819F2A
:10073000F00D1124E15FF14C828190E01092453E72
:100740001092463E21E030E02093433E3093443EF9
:100750002093413E3093423E80933F3E9093403EF3
:1007600081E080933E3EEF01229680DC182F888343
:1007700062E080E336DD85E29EE8111102C089E285
:100780009EE8C6DD83ED90E30197F1F700C000001D
:100790002ADE882351F3DF91CF911F910F91FF90B3
:1007A000DF90CF9008958EE995E08D839E8361E080
:1007B0008CE317DD8EE995E0CBDD3ACF1F920F92E7
:1007C0000FB60F9211241E9A0F900FBE0F901F901C
:1007D00018951F920F920FB60F9211248F9381E0FC
:1007E0008093530180913A3E8F5F80933A3E8C33E1
:1007F000E8F080913A3E8C5380933A3E80913B3EA4
:100800008F5F80933B3E8C3388F080913B3E8C53CE
:1008100080933B3E80913C3E8F5F80933C3E88318D
:1008200028F080913C3E885180933C3E8F910F9000
:100830000FBE0F901F90189598ED83E094BF8093A2
:10084000610083E180933C3E8CE080933B3E88E3F3
:1008500080933A3E809112048860809312048091C4
:10086000110488608093110480911604886080933D
:1008700016048091160483608093160480E18093AF
:10088000A0008DE18093060681E18093020680E658
:100890008093030685E08093000681E094BF8093F7
:1008A0007C0092E0909347018093520191E79093EE
:1008B0005001039A049A059A8093030A89E0809371
:1008C000000A78DD70DD789435E0632E712C46E304
:1008D000C42E4EE3D42E5CE3A52EB12C55245A949D
:1008E00081E0809308068091080680FDFCCF80910E
:1008F0001006823430F1109213080B988091010A8F
:100900008F7E8093010A0C988091010A8F7D8093DD
:10091000010A0D988091010A8F7B8093010A85E07E
:100920008093500081E0809308069091080690FD26
:10093000FCCF90911006923410F08895F4CF3ADDF8
:1009400032DD60E080E04DDC8DE29EE8E1DC80910C
:100950003C3ECADC8AE3F1DC80913B3EC5DC8AE3A5
:10096000ECDC80913A3EC0DC80913C3E00913B3E05
:1009700010E09CE3899F000D111D1124CFE0DEE300
:1009800021E3422E842DD9DC8EEF9DE8C1DC8D80E1
:100990009E808A810815190528F02F813885021755
:1009A000130750F0E984FA840E151F0580F12B859A
:1009B0003C850217130758F59C818823D1F0898163
:1009C0008917C0F48F5F89838BE39EE8A1DC69817E
:1009D0008881CCDB43942D9684E34812D3CF03DD8A
:1009E000882309F4EEC0C0E088248A94982C0CE394
:1009F0006DC099838EE49EE88BDC8F819885081703
:100A0000190710F4A5DCE3CF8B859C85FBCF9B8178
:100A1000882341F08981981730F4815089838CE5CF
:100A20009EE8D4CF99838FE69EE872DC08151905FD
:100A300020F0C7010E151F0528F3C401E3CF1330C2
:100A400009F4B1C0143009F0A7C0ADDC8BE99EE811
:100A50005FDC8ADC8AEA9EE85BDC80EC9EE858DC9E
:100A600086ED9EE855DC1299A0C0CFE0DEE36C81F4
:100A700088817CDB2D96CC16DD06C9F7B4DC882393
:100A800091F3CFE0DEE36981888170DB2D968EE300
:100A9000C633D807C1F719C080913C3EC0913B3E98
:100AA000D0E0809FC00DD11D11247DDC86E89EE83A
:100AB0002FDC42E06EE2CE01ECDCB50187D0609322
:100AC0003C3E80933B3E10923A3EC12F44244394D7
:100AD000C11101C0412C1092453E1092463E6092D9
:100AE000433E7092443E8092413E9092423E8C2F13
:100AF00090E080933F3E9093403E10923E3E60E0F7
:100B000080E06FDB8091013E9091023E01DC8DE739
:100B10009EE8FEDB81E89EE8FBDB26DCA7DA182FE7
:100B20004C1A842D810F83300CF082E0482E87FD13
:100B3000412C61E080E055DB33243394310E3418CE
:100B4000D0E0C0E0E42C042C000CFF08EC16FD06FD
:100B500011F450923D3E96E0931548F0E32DF0E0FD
:100B6000EE0FFF1FEF5FF14C80819181D1DBFCDB49
:100B700010923D3E21963394C330D10539F733DCD2
:100B8000C12F882359F2123061F008F058CF112399
:100B900009F482CF113011F006DCA2CE80E000DD36
:100BA00094CF81E0FCCF82E0FACF119967CFCFE0FC
:100BB000DEE36B818881DADA2D96CC16DD06C9F783
:100BC0005DCF81E08093500088958ACEAA1BBB1B25
:100BD00051E107C0AA1FBB1FA617B70710F0A61B3D
:100BE000B70B881F991F5A95A9F780959095BC015E
:080BF000CD010895F894FFCF38
:100BF800C8A1A81FDA028D14AF0000000000000091
:100C08002F00000007000700147F147F14242A7F98
:100C18002A1223130864623649552250000503003E
:100C280000001C2241000041221C0014083E081448
:100C380008083E08080000A0600008080808080026
:100C48006060000020100804023E5149453E004201
:100C58007F400042615149462141454B31181412E9
:100C68007F1027454545393C4A49493001710905F6
:100C7800033649494936064949291E0036360000D7
:100C880000563600000814224100141414141400ED
:100C9800412214080201510906324959513E7C1279
:100CA80011127C7F494949363E414141227F4141E9
:100CB800221C7F494949417F090909013E414949A7
:100CC8007A7F0808087F00417F41002040413F01AA
:100CD8007F081422417F404040407F020C027F7F02
:100CE8000408107F3E4141413E7F090909063E4103
:100CF80051215E7F09192946464949493101017F39
:100D080001013F4040403F1F2040201F3F403840E6
:100D18003F63140814630708700807615149454385
:100D2800007F41410002040810200041417F000477
:100D380002010204404040404000010204002054E7
:100D48005454787F48444438384444442038444410
:100D5800487F3854545418087E09010218A4A4A4E2
:100D68007C7F0804047800447D40004080847D0036
:100D78007F1028440000417F40007C041804787CE0
:100D8800080404783844444438FC242424181824DB
:100D98002418FC7C080404084854545420043F4494
:100DA80040203C4040207C1C2040201C3C403040DF
:100DB8003C44281028441CA0A0A07C4464544C4403
:100DC800083641410000007F000000414136080814
:100DD80004081008FFFFFFFFFF64000A000100532A
:100DE80065747570204368616E6E656C200050658F
:100DF80072696F6420313A2000506572696F64200F
:100E0800323A200050574D2052616E67653A2000F3
:100E1800202D202000466164696E673A00594553C9
:100E2800004E4F20004171756154696D6572202034
:100E3800202000466164696E6720696E202E2E2E80
:100E48002020202020004F4E2020756E74696C20D1
:100E580020202000466164696E67206F7574202E1B
:100E68002E2E20202020004F464620756E74696C77
:100E78002020202000202D200076312E3000202038
:100E88005365742043757272656E742054696D657C
:100E980020200044697265637420436F6E74726F1A
:100EA8006C0055503A20202053776974636820619C
:100EB8006C6C206F6E2020005345543A20205265F8
:100EC8007475726E20746F206D656E752000444FC6
:100ED800574E3A2053776974636820616C6C206FB1
:100EE800666620005365747570204D656E750053F5
:100EF80065742054696D6500536574757020436886
:100F0800616E6E656C20310053657475702043689E
:100F1800616E6E656C20320053657475702043688D
:0F0F2800616E6E656C20330052657475726E00D9
:100F370001EC8EF78E008F108F208F9B8E308F03E2
:100F4700000100601C020C038403EC040400010090
:100F5700601C020C038403EC0405000000FF3A0246
:060F6700EE02A203CE041D
:00000001FF
